:03000000020A727F
:0C0A7200787FE4F6D8FD758148020AB9CF
:100CE600424A5000544D4300434E47005348560075
:100CF600424A5020544D4320434E47205348560005
:100D0600546F74616C203A2000000000000000005F
:100D160057656C636F6D6520746F200000000000DE
:100D2600456C65637420436F6D6D697373696F6E8F
:100D36005468616E6B7320466F7220566F7465003F
:100E0F0002430000024100000247000002450000BB
:0F0DC8002BF8E6FF120DBD7F907E017D007C00B1
:100DD7008F408E3F8D3E8C3D783D74FF12095BEC52
:060DE7004D4E4F70F32297
:0D0DED007D007BFF7E007F101208D07F3854
:100DFA00D2B2C2B0C2B18FA0C2B27FE87E037D0078
:050E0A007C00020DD781
:100D9F00AA04AB057C007D0A1209238E188F191245
:0E0DAF000C75AF03AE02120C757F20120DBD45
:0B0DBD00D2B2D2B0C2B18FA0C2B222ED
:100C7500AD07AC06ED4C70057F30120DBDED64017E
:100C85004C70057F31120DBDED64024C70057F324D
:100C9500120DBDED64034C70057F33120DBDED647F
:100CA500044C70057F34120DBDED64054C70057F55
:100CB50035120DBDED64064C70057F36120DBDED88
:100CC50064074C70057F37120DBDED64084C700547
:100CD5007F38120DBDED64094C70057F39120DBDCD
:010CE50022EC
:1009CE0078087C007D007BFF7A0C79F67E007F1024
:1009DE001208D0E4F518F519FBFA7F01120DFA9002
:1009EE000000AF8274082FF8E6FF120DBD7F007E67
:1009FE0000120DD3A3E5826410458370E57FC0120B
:100A0E000DFAAE43AF447C007D0A120923AE43AF0C
:100A1E0044120D9FAE45AF467C007D0A120923AEEF
:100A2E0045AF46120D9FAE41AF427C007D0A1209C2
:100A3E0023AA04AB05AE41AF42120DA3AE47AF4899
:100A4E007C007D0A120923AA04AB05AE47AF487C91
:100A5E00007D0A1209238E188F19120C75AF03AE82
:040A6E0002020C75FF
:100AFE00E5442542FFE5433541FEE5482FFFE54736
:100B0E003EFEE5462FF509E5453EF508780A7C00E0
:100B1E007D007BFF7A0D79067E007F101208D0E4EF
:100B2E00F51AF51BFBFA7F01120DFA7F80120DFAF2
:100B3E00900000AF82740A2FF8E6FF120DBD7F0100
:100B4E007E00120DD3A3E5826410458370E57FC04D
:100B5E00120DFAAE08AF097C007D0A120923AA0411
:100B6E00AB05AE08AF097C007D0A1209238E1A8FE1
:0B0B7E001B120C75AF03AE02020C75D9
:100D4600781D7C007D007BFF7A0D79167E007F1072
:100D56001208D0782D7C007A0D7926120DED7F0CC5
:100D6600120DFA7F01120DFA7F80120DFAE4FBFADA
:100D7600741D120DC80BBB00010AEB64104A70F01B
:100D86007FC0120DFAE4FAFB742D120DC80BBB00DE
:080D9600010AEB64104A70F041
:010D9E002232
:060B89008B088A09890AAD
:100B8F00780D7C007A0D7936120DED7F0C120DFA6F
:100B9F007F01120DFA7F80120DFAE4F50BF50C743C
:100BAF000D250C120DC9050CE50C7002050BC39435
:100BBF0010E50B6480948040E67FC0120DFAE4F5D7
:100BCF000BF50CAB08AA09A90A850C82850B8312B9
:100BDF0008F6FF120DBD7FE87E03120DD3050CE55D
:100BEF000C7002050BC39403E50B6480948040D313
:030BFF00020D469E
:100C0200120D4620B31430B3FD0544E544700205CD
:100C1200437BFF7A0C79E6120B8920B41430B4FDC1
:100C22000546E546700205457BFF7A0C79EA120B10
:100C32008920B51430B5FD0542E542700205417BBD
:100C4200FF7A0C79EE120B8920B61430B6FD0548F6
:100C5200E548700205477BFF7A0C79F2120B892076
:100C6200B706120AFE30B7FD2097981209CE2097D8
:030C72009280FB72
:100A7E00020C02E493A3F8E493A34003F68001F280
:100A8E0008DFF48029E493A3F85407240CC8C33379
:100A9E00C4540F4420C8834004F456800146F6DF48
:100AAE00E4800B0102040810204080900E0FE47EBB
:100ABE00019360BCA3FF543F30E509541FFEE4933D
:100ACE00A360010ECF54C025E060A840B8E493A304
:100ADE00FAE493A3F8E493A3C8C582C8CAC583CA2F
:100AEE00F0A3C8C582C8CAC583CADFE9DEE780BEE7
:010E1F0000D2
:10080000E709F608DFFA8046E709F208DFFA803EDA
:1008100088828C83E709F0A3DFFA8032E309F608C7
:10082000DFFA8078E309F208DFFA807088828C832F
:10083000E309F0A3DFFA806489828A83E0A3F608E3
:10084000DFFA805889828A83E0A3F208DFFA804CBD
:1008500080D280FA80C680D4806980F28033801094
:1008600080A680EA809A80A880DA80E280CA8033FD
:1008700089828A83ECFAE493A3C8C582C8CCC58375
:10088000CCF0A3C8C582C8CCC583CCDFE9DEE78045
:100890000D89828A83E493A3F608DFF9ECFAA9F0C4
:1008A000EDFB2289828A83ECFAE0A3C8C582C8CC1A
:1008B000C583CCF0A3C8C582C8CCC583CCDFEADE33
:1008C000E880DB89828A83E493A3F208DFF980CC95
:1008D00088F0EF60010E4E60C388F0ED2402B4048E
:1008E0000050B9F582EB2402B4040050AF23234535
:0608F00082239008507302
:1008F600BB010CE58229F582E5833AF583E02250B7
:1009060006E92582F8E622BBFE06E92582F8E22200
:0D091600E58229F582E5833AF583E493221A
:10092300C2D5EC30E709B2D5E4C39DFDE49CFCEEEF
:1009330030E715B2D5E4C39FFFE49EFE120979C3E5
:10094300E49DFDE49CFC800312097930D507C3E4E0
:060953009FFFE49EFE225E
:100959007401FF3395E0FEFDFC080808E6CF2FF689
:1009690018E6CE3EF618E6CD3DF618E6CC3CF62262
:10097900BC000BBE0029EF8DF084FFADF022E4CC62
:10098900F875F008EF2FFFEE33FEEC33FCEE9DEC2B
:10099900984005FCEE9DFE0FD5F0E9E4CEFD22ED71
:1009A900F8F5F0EE8420D21CFEADF075F008EF2FBB
:1009B900FFED33FD4007985006D5F0F222C398FDAC
:0509C9000FD5F0EA2249
:00000001FF
