:030000000208C72C
:0C08C700787FE4F6D8FD75811102090E5F
:0609E900040E0000753051
:1009D3008F0D8E0C8D0B8C0A780A74FF1209B5ECFF
:0609E3004D4E4F70F3229F
:10080000EF4E700ED2A0D2A1D2A2D2A3D2A4D2A572
:10081000C2A6EF64014E700EC2A0D2A1D2A2C2A3A2
:10082000C2A4C2A5C2A6EF64024E700ED2A0D2A18D
:10083000C2A2D2A3D2A4C2A5D2A6EF64034E700E68
:10084000D2A0D2A1D2A2D2A3C2A4C2A5D2A6EF6442
:10085000044E700EC2A0D2A1D2A2C2A3C2A4D2A53D
:10086000D2A6EF64054E700ED2A0C2A1D2A2D2A32E
:10087000C2A4D2A5D2A6EF64064E700ED2A0C2A129
:10088000D2A2D2A3D2A4D2A5D2A6EF64074E700EF4
:10089000D2A0D2A1D2A2C2A3C2A4D2A5C2A6EF6402
:1008A000084E700ED2A0D2A1D2A2D2A3D2A4D2A5B9
:1008B000D2A6EF64094E700ED2A0D2A1D2A2D2A3CA
:0708C000C2A4D2A5D2A622BA
:10098700AB05AA04C2A7D2B01208007FD07E077DAC
:10099700007C001209D3D2A7C2B0AF03AE0212087F
:0C09A700007FDC7E057D007C000209D38F
:10095300C2A7C2B0E4F508F509900000AD82AC83EC
:10096300AF09AE08120987A3E582640A458370ECD8
:100973000509E50970020508C3940AE50864809433
:030983008040D6DB
:01098600224E
:1008D300020953E493A3F8E493A34003F68001F2DF
:1008E30008DFF48029E493A3F85407240CC8C33326
:1008F300C4540F4420C8834004F456800146F6DFF5
:10090300E4800B01020408102040809009E9E47E92
:10091300019360BCA3FF543F30E509541FFEE493E9
:10092300A360010ECF54C025E060A840B8E493A3B0
:10093300FAE493A3F8E493A3C8C582C8CAC583CADB
:10094300F0A3C8C582C8CAC583CADFE9DEE780BE93
:0109EF000007
:1009B3007401FF3395E0FEFDFC080808E6CF2FF62F
:1009C30018E6CE3EF618E6CD3DF618E6CC3CF62208
:00000001FF
