:03000000020800F3
:0C080000787FE4F6D8FD758109020847F6
:040993000208000155
:0F098400C2A0C2A1C2A2C2A3C2A4C2A5C2A6227F
:10088C0012098430B0FDEF64014E700EC2A0D2A1EB
:10089C00D2A2C2A3C2A4C2A5C2A6EF64024E700E1D
:1008AC00D2A0D2A1C2A2D2A3D2A4C2A5D2A6EF64D6
:1008BC00034E700ED2A0D2A1D2A2D2A3C2A4C2A5C2
:1008CC00D2A6EF64044E700EC2A0D2A1D2A2C2A3D3
:1008DC00C2A4D2A5D2A6EF64054E700ED2A0C2A1BE
:1008EC00D2A2D2A3C2A4D2A5D2A6EF64064E700E99
:1008FC00D2A0C2A1D2A2D2A3D2A4D2A5D2A68E0833
:03090C008F09222E
:10090F00D2B0C2A712098420B00FE50964014508CF
:10091F0060077F017E0012088C20B00FE50964028A
:10092F00450860077F027E0012088C20B00FE50992
:10093F006403450860077F037E0012088C20B00F08
:10094F00E5096404450860077F047E0012088C20C7
:10095F00B00FE5096405450860077F057E001208A2
:10096F008C20B0A3E50964064508609B7F067E00D6
:05097F0012088C8092BB
:10080C0002090FE493A3F8E493A34003F68001F2EA
:10081C0008DFF48029E493A3F85407240CC8C333ED
:10082C00C4540F4420C8834004F456800146F6DFBC
:10083C00E4800B0102040810204080900993E47EB0
:10084C00019360BCA3FF543F30E509541FFEE493B1
:10085C00A360010ECF54C025E060A840B8E493A378
:10086C00FAE493A3F8E493A3C8C582C8CAC583CAA3
:10087C00F0A3C8C582C8CAC583CADFE9DEE780BE5B
:01099700005F
:00000001FF
